:020000040000FA
:1000000000020010E1000000E9000000EB00000029
:10001000ED000000EF000000F10000000000000013
:10002000000000000000000000000000F3000000DD
:10003000F500000000000000F7000000F9000000DB
:10004000FB000000FB000000FB000000FB000000C4
:10005000FB000000FB000000FB000000FB000000B4
:10006000FB000000FB000000FB000000FB000000A4
:10007000FB000000FB000000FB000000FB00000094
:10008000FB000000FB000000FB000000FB00000084
:10009000FB000000FB000000FB000000FB00000074
:1000A000FB000000FB000000FB000000FB00000064
:1000B000FB000000FB000000FB000000FB00000054
:1000C000FB000000FB000000FB000000DFF80CD08C
:1000D00000F0A6FA00480047551C0100000200107D
:1000E0000648804706480047FEE7FEE7FEE7FEE7D2
:1000F000FEE7FEE7FEE7FEE7FEE7FEE7DD170100AD
:10010000CD00000040EA01039B0703D009E008C9C5
:10011000121F08C0042AFAD203E011F8013B00F8CC
:10012000013B521EF9D27047D2B201E000F8012B18
:10013000491EFBD270470022F6E710B513460A4667
:1001400004461946FFF7F0FF204610BD2DE9FE4F8B
:10015000804681EA0300C00F0C46009021F0004168
:1001600023F00045B8EB0200A94105D240462146E4
:1001700090461C460B46024623F00040104304D133
:100180004046214603B0BDE8F08F270DC7F30A00B3
:10019000C3F30A510290401A0190402866DAC3F373
:1001A000130040F4801B0098924620B10023D2EB4C
:1001B000030A63EB0B0B01985946C0F1400250460D
:1001C00000F089F806460D4650465946019A00F05F
:1001D000B5F910EB08006141002487EA115284EA66
:1001E000E7731A433BD0009A3AB3019A012A4FEAC7
:1001F000075210DC001B61EB02014FF0004202EAE3
:100200000752CDE90042001C41F5801132462B46D1
:1002100000F0B3F9B6E7001B61EB0201001C41F5E9
:10022000801300185B412018A2F5001747EB03016B
:1002300040EAD570B6196D4111E06D084FEA3606F7
:1002400045EAC0754FEA0752001B61EB0201001C32
:1002500041F5801149084FEA3000001951413246FA
:100260002B4603B0BDE8F04F00F07AB900980122A8
:1002700040000023D0EB020263EBE07300982146BC
:100280004FEAE074B8EB000061EB0401E9E783F0AA
:1002900000435BE781F0004158E70EB5C10F80EAEB
:1002A000E0700844CA07002140F233438DE80E0095
:1002B0000A460B4600F061F903B000BD0EB540F2EE
:1002C000334102910021CDE900110A460B4600F0AE
:1002D00054F903B000BD202A04DB203A00FA02F1F1
:1002E000002070479140C2F1200320FA03F3194324
:1002F00090407047704700BFFEE70000FFFFFFFF20
:100300002DE9FE4F81EA030404F0004421F000418E
:1003100000944FF0000B23F0004350EA010402D098
:1003200052EA030404D10020014603B0BDE8F08F77
:10033000C3F30A54C1F30A552C44A4F2F3340194D4
:10034000A0FB0254C1F3130141F48011C3F3130362
:1003500043F4801301FB024400FB034E840A970A16
:1003600044EA815447EA8357A4FB076802958D0A43
:1003700005FB07854FEA932C04FB0C542705029DCF
:100380004FEA065847EA1637B5EB08056EEB070C3F
:10039000870E920E47EA811742EA8312A7FB0201F9
:1003A000B6EB0B0164EB00042B0D43EA0C335E1833
:1003B00044EB1C50DA465146E7FB0201C5F3130437
:1003C0004FEA0B3343EA14534FEA0432019C43EAE9
:1003D0000603A4F10C040294009CCDE900B400F0E3
:1003E000CCF8A2E72DE9F04D81EA030404F0004BBC
:1003F00021F0004514464FF0000A23F0004150EA76
:10040000050220D054EA01021DD0C5F30A57024666
:10041000C5F31303C1F31300C1F30A5640F480156A
:1004200043F48013A7EB0608101BD64608F2FD38EC
:1004300073EB050002D308F1010801E092185B415B
:10044000B8F1000F03DA00200146BDE8F08D00206E
:100450004FF48011064684460EE0171B73EB050728
:1004600005D3121B63EB050306434CEA010C490854
:100470004FEA300092185B4150EA0107EDD152EA91
:10048000030012D082EA040083EA0501084303D185
:1004900000224FF0004308E0101BAB4102D20122C2
:1004A000002302E06FF0010253101AEB06004CEB40
:1004B000085110EB0A0041EB0B01BDE8F04D00F0D4
:1004C0004FB8C1F30A5210B5C1F3130140F2FF3324
:1004D00041F480119A4201DA002010BD40F233430A
:1004E0009A42A2F2334203DC524200F017F810BDE8
:1004F000904010BD30B5002904DB4FF0004440426D
:1005000064EB0101002B04DB4FF00044524264EB2A
:1005100003038B4208BF824230BD0000202A04DB67
:10052000203A21FA02F00021704721FA02F3D0406C
:10053000C2F120029140084319467047202A06DB89
:10054000CB17203A41FA02F043EAE07306E041FAA1
:1005500002F3D040C2F1200291400843194670478F
:1005600010B5002B08DA401C41F1000192185B41E4
:100570001A4301D120F0010010BD2DE9F04D924643
:100580009B4611B1B1FA81F202E0B0FA80F220325A
:100590009046FFF7A0FE04460F4640EA0A0041EAF3
:1005A0000B0153465A46084303D120463946BDE85D
:1005B000F08D114653EA010015D0C8F140025046B3
:1005C000FFF7ACFF05460E46504659464246FFF738
:1005D00082FE084301D0012000E00020054346EAE6
:1005E000E0762C4337430A984FEA4453A0EB0800C7
:1005F0004FEAD4240A304FF0000244EA47544FEA4D
:10060000D72502D500200146D1E70105101969411F
:10061000DDE9084500196941BDE8F04DA0E700009B
:10062000064C074D06E0E06840F0010394E807003F
:1006300098471034AC42F6D3FFF74CFD5825010023
:100640008825010001290AD10B4A12680B4B00EAE8
:10065000030342EA03020A4BC3F8C4200AE049B983
:10066000054A1268054B23EA000302EA0302044B21
:10067000C3F8C42070470000C4C00F40DEF7EFEF9E
:1006800000C00F4070B506460D480468304600F0C3
:1006900019F8054635B1012D06D0022D06D0032DDF
:1006A00008D105E0042505E0012503E0022501E06D
:1006B000082500BF00BFB4FBF5F4204670BD000064
:1006C00018C007200146202903D20A46054B1868A6
:1006D00003E0A1F12002044B186820FA02F303F0B2
:1006E00003007047A8C10F40ACC10F4010B50021F6
:1006F00007E00C2200BF1300A2F10104E2B2FAD11C
:10070000491C8142F5D310BDF8B504460D464FF69D
:10071000FF70A11E8AB20D39009088B22B4629467F
:1007200000F02CFF4FF6FF7004F10F018AB2A11CFC
:10073000009088B22B46294600F020FF4FF6FF704C
:100740000090A81E83B20D3881B22246204600F0E8
:1007500015FF4FF6FF70009005F10F0083B2A81C43
:1007600081B22246204600F009FF4BF6F04005F129
:100770000F06B3B2E61FB2B205F10F06B1B2A4F193
:100780000F060090B0B200F0F9FE4BF6F04005F114
:100790000F06B3B2A4F10F06B2B2EE1DB1B2A4F1CE
:1007A0000F060090B0B200F0E9FE4BF6F040A5F164
:1007B0000F06B3B2E61FB2B2A5F10F06B1B2A4F1B3
:1007C0000F060090B0B200F0D9FE4BF6F040A5F154
:1007D0000F06B3B2A4F10F06B2B2EE1FB1B2A4F18C
:1007E0000F060090B0B200F0C9FE4BF6F04005F1E4
:1007F0000F06B3B204F10F06B2B205F10F06B1B2A3
:10080000E61D0090B0B200F0B9FE4BF6F04005F1E5
:100810000F06B3B204F10F06B2B2EE1DB1B204F18D
:100820000F060090B0B200F0A9FE4BF6F040A5F123
:100830000F06B3B204F10F06B2B2A5F10F06B1B2C2
:10084000E61D0090B0B200F099FE4BF6F040EE1FAE
:10085000B3B204F10F06B2B2A5F10F06B1B204F1C2
:100860000F060090B0B200F089FEF8BD01460020EE
:10087000052912D2DFE801F00305080B0E00084835
:100880000CE00748203009E00548403006E0044805
:10089000603003E00248803000E000BF00BF7047D6
:1008A00000C009202DE9F04107460D46164638469E
:1008B000FFF7DCFF04463CB11EB1206828432060EE
:1008C00002E02068A8432060BDE8F08170B50646CC
:1008D0000C463046FFF7CAFF054605B1AC6170BD56
:1008E0002DE9F84305460E4614469846DDF820905B
:1008F00000BF14F8017B43463A4631462846CDF8FE
:10090000009010F093FCE82D03DA05F1080085B2A1
:1009100009E0B6F5987F04DA002506F1100086B2EA
:1009200001E00025002620780028E2D1BDE8F88308
:1009300070B505460C46A4F12000044A02EB0011F4
:1009400010222846FFF7DEFB70BD0000681F010083
:1009500001B588B0FE48007809287DD102200590B5
:1009600000200690059804904FF48070F949C865FE
:10097000C004C863800088630498039003980290C1
:100980000298496D60F30701F2484165406920F41F
:10099000FF014FF4FF02029802EAC0100143ED4844
:1009A000416100BF4FF08050EA49C86300BF4FF07B
:1009B0008050E84988630015886500BF0698049058
:1009C0004815C865C0048863049803900398029092
:1009D0000298496D60F30701DE484165406920F4E3
:1009E000FF014FF4FF02029802EAC0100143D94808
:1009F000416100BF4FF08050D649C86300BF4FF03F
:100A00008050D44988630015886500BF00BF03206B
:100A1000059000200690059804904815C865C0040C
:100A2000C86380008863049803900398029002983A
:100A3000496D60F30701C7484165406920F4FF0133
:100A40004FF4FF02029802EAC0100143C14841611D
:100A500000BF4FF0805000E043E2BE49C86300BFD2
:100A60004FF08050BB4988630015886500BF069829
:100A700004904815C865C0048863049803900398DF
:100A800002900298496D60F30701B24841654069E0
:100A900020F4FF014FF4FF02029802EAC010014364
:100AA000AC48416100BF4FF08050AA49C86300BF05
:100AB0004FF08050A74988630015886500BF00BFCC
:100AC0000420059000200690059804904815C865FC
:100AD000C004C86380008863049803900398029060
:100AE0000298496D60F307019A484165406920F416
:100AF000FF014FF4FF02029802EAC010014395483B
:100B0000416100BF4FF080509249C86300BF4FF071
:100B10008050904988630015886500BF069804904E
:100B20004815C865C0048863049803900398029030
:100B30000298496D60F3070186484165406920F4D9
:100B4000FF014FF4FF02029802EAC01001438148FE
:100B5000416100BF4FF080507E49C86300BF4FF035
:100B600080507C4988630015886500BF00BF052060
:100B70000590EF200690059804904815C865C004BC
:100B8000C8638000886304980390039802900298D9
:100B9000496D60F307016F484165406920F4FF012A
:100BA0004FF4FF02029802EAC01001436948416114
:100BB00000BF4FF080506749C86300BF4FF08050BE
:100BC000644988630015886500BF0698049048153D
:100BD000C865C00488630498039003980290029843
:100BE000496D60F307015B484165406920F4FF01EE
:100BF0004FF4FF02029802EAC010014355484161D8
:100C000000BF4FF080505349C86300BF4FF0805081
:100C1000504988630015886500BF00BF0620059015
:100C200000200690059804904815C865C004C86364
:100C30008000886304980390039802900298496D9D
:100C400060F3070143484165406920F4FF014FF418
:100C5000FF02029802EAC01001433E48416100BF12
:100C60004FF080503B49C86300BF4FF08050394976
:100C700088630015886500BF069804904815C8650C
:100C8000C004886304980390039802900298496D09
:100C900060F307012F484165406920F4FF014FF4DC
:100CA000FF02029802EAC01001432A48416100BFD6
:100CB0004FF080502749C86300BF4FF0805025494E
:100CC00088630015886500BF00BF072005900020DD
:100CD0000690059804904815C865C004C863800054
:100CE000886304980390039802900298496D60F31A
:100CF000070118484165406920F4FF014FF4FF02E5
:100D0000029802EAC01001431248416100BF4FF04F
:100D100080501049C86300BF4FF080500D49886370
:100D20000015886500BF069804904815C865C00482
:100D3000886304980390039802900298496D60F3C9
:100D4000070104484165406920F4FF0104E0000008
:100D500000C0072000C009204FF4FF02029802EAF9
:100D6000C0100143FE48416100BF4FF08050FC4974
:100D7000C86300BF4FF08050F9498863001588654B
:100D800000BF00BF08200590012006900598049040
:100D90004815C865C004C863800088630498039040
:100DA000039802900298496D60F30701EC48416591
:100DB000406920F4FF014FF4FF02029802EAC010DC
:100DC0000143E748416100BF4FF08050E449C863E8
:100DD00000BF4FF08050E24988630015886500BF6E
:100DE000069804904815C865C00488630498039069
:100DF000039802900298496D60F30701D848416555
:100E0000406920F4FF014FF4FF02029802EAC0108B
:100E10000143D348416100BF4FF08050D049C863BF
:100E200000BF4FF08050CE4988630015886500BF31
:100E300000BF092005903F200690059804904815B2
:100E4000C865C004C8638000886304980390039851
:100E500002900298496D60F30701C14841654069FD
:100E600020F4FF014FF4FF02029802EAC010014390
:100E7000BB48416100BF4FF08050B949C86300BF13
:100E80004FF08050B64988630015886500BF06980A
:100E900004904815C865C0048863049803900398BB
:100EA00002900298496D60F30701AD4841654069C1
:100EB00020F4FF014FF4FF02029802EAC010014340
:100EC000A748416100BF4FF08050A549C86300BFEB
:100ED0004FF08050A24988630015886500BF00BFAD
:100EE0002FE20020059006909E48007809287DD0CA
:100EF0002020039005980490039802904FF480708E
:100F00009749C865C1049648C163880094498863BD
:100F100002980190019800900098496D60F30701D4
:100F20008F484165406920F4FF014FF4FF020098AB
:100F300002EAC01001438A48416100BF4FF080506F
:100F40008749C86300BF4FF080508549886300150A
:100F5000886500BF049802904815C865C00488637E
:100F600002980190019800900098496D60F3070184
:100F70007B484165406920F4FF014FF4FF0200986F
:100F800002EAC01001437648416100BF4FF0805033
:100F90007349C86300BF4FF08050714988630015E2
:100FA000886500BF00BF2120039006980490039835
:100FB00002904815C865C1046948C163890081630E
:100FC000029801900198009065490098496D60F37E
:100FD000070163484165406920F4FF014FF4FF02B7
:100FE000009802EAC01001435D4800E037E041612B
:100FF00000BF4FF080505A49C86300BF4FF0805186
:10100000574881634115816500BF049802900846E6
:101010005349C865C0048863029801900198009004
:101020000098496D60F307014D484165406920F41F
:10103000FF014FF4FF02009802EAC0100143484844
:10104000416100BF4FF08051C16300BF4FF080503D
:10105000434988630015886500BF00BF6EE1022028
:101060000390059800120490039802904FF480704A
:101070003B49C865C004C863810039488163029850
:1010800001900198009036490098496D60F307017E
:1010900033484165406920F4FF014FF4FF02009896
:1010A00002EAC01001432E48416100BF4FF080505A
:1010B0002B49C86300BF4FF0805129488163411517
:1010C000816500BF0498029008462549C865C004A0
:1010D000886302980190019800900098496D60F330
:1010E00007011F484165406920F4FF014FF4FF02EA
:1010F000009802EAC01001431948416100BF4FF057
:1011000080501749C86300BF4FF08050144988636E
:101110000015886500BF00BF032003900598049068
:10112000039802904815C865C004C86380008863AE
:1011300002980190019800900098496D60F30701B2
:1011400007484165406920F4FF014FF4FF02009811
:1011500002EAC01001430248416100BF04E0000000
:1011600000C0092000C007204FF08050A649C86386
:1011700000BF4FF08050A44988630015886500BF08
:10118000049802904815C865C1049F48816302987D
:101190000190019800909C490098496D60F3070107
:1011A00099484165406920F4FF014FF4FF0200981F
:1011B00002EAC01001439448416100BF4FF08050E3
:1011C0009149C86300BF4FF080518F48816340153B
:1011D0008D49886500BF00BF062003900698001265
:1011E0000490039802904815C865C004C863810044
:1011F0008548816302980190019800908249009887
:10120000496D60F3070180484165406920F4FF01A2
:101210004FF4FF02009802EAC01001437A4841618E
:1012200000BF4FF080507849C86300BF4FF0805036
:10123000754988630015886500BF049802904815B9
:10124000C865C004886302980190019800900098D6
:10125000496D60F307016C484165406920F4FF0166
:101260004FF4FF02009802EAC01001436648416152
:1012700000BF4FF080506449C86300BF4FF08050FA
:10128000614988630015886500BF00BF072003908F
:1012900006980490039802904815C865C004C86376
:1012A0008000886302980190019800900098496D31
:1012B00060F3070154484165406920F4FF014FF491
:1012C000FF02009802EAC01001434F48416100BF8D
:1012D0004FF080504C49C86300BF4FF080504A49DE
:1012E00088630015886500BF049802904815C8659A
:1012F000C004886302980190019800900098496D9D
:1013000060F3070140484165406920F4FF014FF454
:10131000FF02009802EAC01001433B48416100BF50
:101320004FF080503849C86300BF4FF080503649B5
:1013300088630015886500BF00BF00BF00BF00BF05
:1013400000BF222006904FF480702F49C865C0046A
:10135000C8638000886306980590059804900498F7
:10136000496D60F3070128484165406920F4FF0199
:101370004FF4FF02049802EAC01001432248416181
:1013800000BF4FF080502049C86300BF4FF080502D
:101390001D4988630015886500BF002007902CE078
:1013A000089806904FF480701749C865C004886398
:1013B00006980590059804900498496D60F307011C
:1013C00011484165406920F4FF014FF4FF02049881
:1013D00002EAC01001430C48416100BF4FF0805049
:1013E0000949C86300BF4FF0805007498863001562
:1013F000886500BF0798401C07900798B0F5963F96
:10140000CED309B000BD000000C009201CB50020EB
:101410008DF802008DF804008DF8030002208DF88D
:10142000000000208DF8010068460FF0EDFE01205D
:101430008DF8010068460FF0E7FE02208DF80100EC
:1014400068460FF0E1FE03208DF8010068460FF0BA
:10145000DBFE04208DF8010068460FF0D5FE052064
:101460008DF8010068460FF0CFFE06208DF80100D0
:1014700068460FF0C9FE07208DF8010068460FF09E
:10148000C3FE0122FF210220FFF70CFA00208DF895
:1014900002008DF804008DF8030002208DF8000092
:1014A0000F208DF8010068460FF0AEFE10208DF879
:1014B000010068460FF0A8FE11208DF80100684673
:1014C0000FF0A2FE12208DF8010068460FF09CFE7E
:1014D00013208DF8010068460FF096FE14208DF859
:1014E000010068460FF090FE15208DF80100684657
:1014F0000FF08AFE16208DF8010068460FF084FE7A
:1015000001224FF4FF010020FFF7CCF900208DF8F5
:1015100002008DF804008DF8030001208DF8000012
:101520001B208DF8010068460FF06EFE1C208DF820
:10153000010068460FF068FE1D208DF80100684626
:101540000FF062FE01224FF060511046FFF7AAF93A
:1015500000208DF802008DF804008DF803000220B1
:101560008DF8000008208DF8010068460FF04CFE51
:10157000012211020220FFF795F91CBD2DE9F04F61
:1015800004460D4691469A46DDF824B04C4503DDED
:101590000FFA89F7A146BCB2554503DD0FFA8AF769
:1015A000AA46BDB2A9EB04000FFA80F8AAEB050029
:1015B00006B2B8F1000F0BD100BF5A4629462046AB
:1015C0000FF094FB681C85B2AA45F6DABDE8F08FEF
:1015D00056B900BF5A46294620460FF087FB601CCB
:1015E00084B2A145F6DAF1E7B04521DDC8EB46004B
:1015F00007B215E05A46294620460FF077FB601CDB
:1016000084B2002F08DD681C85B27000022101FB46
:101610001800384407B203E0022000FB067007B24E
:101620004C45E7D15A46294620460FF05FFB20E0A3
:10163000C6EB480007B215E05A46294620460FF08F
:1016400055FB681C85B2002F08DD601C84B2700059
:10165000022101FB1800384407B203E0022000FB1E
:10166000067007B25545E7D15A46294620460FF085
:101670003DFB00BFAAE7000000B587B0FFF7C6FE3C
:10168000642010F061FA00200590059803904FF453
:101690008070FE49C865C004C863800088630398F1
:1016A0000290029801900198496D60F30701F74894
:1016B0004165406920F4FF024FF4FF01019801EAFF
:1016C000C0100243F148426100BF4FF08050EF4923
:1016D000C86300BF4FF08050EC49886300158865EF
:1016E00000BF00BFC865C004886340008863400035
:1016F000C86300BF0846006C20F0FF00086408467D
:10170000006820F4FF0008600846406DC1B20291F5
:10171000DE48406900F4FF010191DDE9010141EA81
:10172000D0110291D948006C40F0FF00D7490864FD
:101730000846006840F4FF01D44801600298039015
:101740004FF00050D14988634115D0488165039816
:101750000490049806900698A0F51341253905D009
:101760000698A0F51341283942F0A8820120C84903
:101770000870B1200490A5200590049803904FF4C0
:101780008070C249C865C004C8638100BF488163D6
:101790000398029002980190BC490198496D60F34A
:1017A0000701BA484165406920F4FF014FF4FF0288
:1017B000019802EAC0100143B448416100BF4FF0F4
:1017C0008051C16300BF4FF08051B0488163401524
:1017D000AE49886500BF059803904815C865C004E8
:1017E000886303980290029801900198496D60F314
:1017F0000701A6484165406920F4FF024FF4FF014C
:10180000019801EAC0100243A048426100BF4FF0B6
:1018100080509E49C86300BF4FF080509B49886349
:1018200001159A48816500BF00BFB1200590059859
:10183000039008469549C865C004C8638000886362
:1018400003980290029801900198496D60F3070196
:101850008E484165406920F4FF024FF4FF01019872
:1018600001EAC01002438948426100BF4FF0805036
:101870008649C86300BF4FF0805184488163411599
:10188000816500BF00BF40158049C865C1047F481D
:10189000816348007D4988634000C86300BF0846F3
:1018A000006C20F0FF0008640846006820F4FF0088
:1018B00008600846406DC0B202900846406900F4D6
:1018C000FF000190DDE9011040EAD11002906F485D
:1018D000006C40F0FF006D4908640846006840F461
:1018E000FF000860029803904FF000508863401595
:1018F000886503980490049806900698A5285ED100
:10190000032063490870B1200490002005900498DA
:1019100003904FF480705D49C865C004C8638000BF
:10192000886303980290029801900198496D60F3D2
:10193000070156484165406920F4FF024FF4FF015A
:10194000019801EAC01002435048426100BF4FF0C5
:1019500080504E49C86300BF4FF080514B488163AF
:1019600040154A49886500BF059803904815C86529
:10197000C004886303980290029801900198496D11
:1019800060F3070141484165406920F4FF014FF4CD
:10199000FF02019802EAC01001433C48416100BFC8
:1019A0004FF080503949C86300BF4FF0805037492D
:1019B000886301153548816500BF00BF02E0022041
:1019C00033490870E520049047F6F000059004982C
:1019D00003904FF480702D49C865C1042B48C16342
:1019E00088002A4988630398029002980190019820
:1019F000496D60F3070125484165406920F4FF0205
:101A00004FF4FF01019801EAC01002431F484261F0
:101A100000BF4FF080501D49C86300BF4FF0805099
:101A20001A4988630015886500BF0598039048151A
:101A3000C865C004886303980290029801900198D9
:101A4000496D60F3070111484165406920F4FF02C8
:101A50004FF4FF01019801EAC01002430B484261B4
:101A600000BF4FF080500949C86300BF4FF080505D
:101A7000064988630015886500BF00BF01200490F7
:101A80000002059004980390481503E000C0092067
:101A900000C00720C865C004C8638000886303983D
:101AA0000290029801900198496D60F30701FE4889
:101AB0004165406920F4FF024FF4FF01019801EAFB
:101AC000C0100243F848426100BF4FF08050F64911
:101AD000C86300BF4FF08050F349886300158865E4
:101AE00000BF059803904815C865C0048863039833
:101AF0000290029801900198496D60F30701EA484D
:101B00004165406920F4FF024FF4FF01019801EAAA
:101B1000C0100243E448426100BF4FF08050E249E8
:101B2000C86300BF4FF08050DF49886300158865A7
:101B300000BF00BF022004904FF4E06005900498BD
:101B400003904815C865C004C86380008863039883
:101B50000290029801900198496D60F30701D24804
:101B60004165406920F4FF014FF4FF02019802EA49
:101B7000C0100143CC48416100BF4FF08050CA49BA
:101B8000C86300BF4FF08050C74988630115C6483D
:101B9000816500BF059803900846C349C865C00425
:101BA000886303980290029801900198496D60F350
:101BB0000701BD484165406920F4FF024FF4FF0171
:101BC000019801EAC0100243B748426100BF4FF0DC
:101BD0008050B549C86300BF4FF08051B24881635F
:101BE0004015B149886500BF00BF0320049041F251
:101BF00030000590049803904815C865C004C86378
:101C00008000886303980290029801900198496DC2
:101C100060F30701A4484165406920F4FF014FF4D7
:101C2000FF02019802EAC01001439F48416100BFD2
:101C30004FF080509C49C86300BF4FF080509A49D4
:101C4000886301159848816500BF05980390084690
:101C50009549C865C0048863039802900298019072
:101C60000198496D60F307018F484165406920F490
:101C7000FF014FF4FF02019802EAC01001438A48B5
:101C8000416100BF4FF080508749C86300BF4FF0EB
:101C90008050854988630015886500BF00BF042017
:101CA000049000200590049803904815C865C0046E
:101CB000C86380008863039802900298019001989D
:101CC000496D60F3070178484165406920F4FF02DF
:101CD0004FF4FF01019801EAC010024372484261CB
:101CE00000BF4FF080507049C86300BF4FF0805074
:101CF0006D4988630015886500BF059803904815F5
:101D0000C865C00488630398029002980190019806
:101D1000496D60F3070164484165406920F4FF02A2
:101D20004FF4FF01019801EAC01002435E4842618E
:101D300000BF4FF080505C49C86300BF4FF0805136
:101D40005948816340155849886500BF00BF082085
:101D5000049040F207200590049803904815C86548
:101D6000C004C863800088630398029002980190C1
:101D70000198496D60F307014B484165406920F4C3
:101D8000FF024FF4FF01019801EAC01002434648E8
:101D9000426100BF4FF080504349C86300BF4FF01D
:101DA00080504149886301153F48816500BF05980F
:101DB000039008463C49C865C004886303980290B4
:101DC000029801900198496D60F30701364841651A
:101DD000406920F4FF024FF4FF01019801EAC010AE
:101DE00002433148426100BF4FF08051C16300BFE0
:101DF0004FF080512C48816340152B49886500BF06
:101E000000BF092004900020059004980390491514
:101E10002548C165C8042449C863800088630398C5
:101E20000290029801900198496D60F307011E48E5
:101E30004165406920F4FF024FF4FF01019801EA77
:101E4000C01002431848426100BF4FF0805016494D
:101E5000C86300BF4FF08050134988630015886540
:101E600000BF059803904815C865C00488630398AF
:101E70000290029801900198496D60F307010A48A9
:101E80004165406920F4FF024FF4FF01019801EA27
:101E9000C01002430448426100BF4FF08050024925
:101EA000C86300BF02E0000000C009204FF080506E
:101EB000FE4988630015886500BF00BF0A200490B2
:101EC00000200590049803904815C865C004C863B5
:101ED0008000886303980290029801900198496DF0
:101EE00060F30701F1484165406920F4FF024FF4B7
:101EF000FF01019801EAC0100243EC48426100BFB3
:101F00004FF08051C16300BF4FF08050E7498863B4
:101F10000015886500BF059803904815C865C00482
:101F2000886303980290029801900198496D60F3CC
:101F30000701DE484165406920F4FF014FF4FF02CC
:101F4000019802EAC0100143D848416100BF4FF038
:101F50008050D649C86300BF4FF08051D348816399
:101F60004015D249886500BF00BF0C2004900020B6
:101F70000590049803904815C865C004C8638000A4
:101F8000886303980290029801900198496D60F36C
:101F90000701C6484165406920F4FF024FF4FF0184
:101FA000019801EAC0100243C048426100BF4FF0EF
:101FB0008051C16300BF4FF08050BC498863011558
:101FC000BA48816500BF059803900846B749C865BF
:101FD000C004886303980290029801900198496DAB
:101FE00060F30701B1484165406920F4FF024FF4F6
:101FF000FF01019801EAC0100243AC48426100BFF2
:102000004FF08050A949C86300BF4FF08051A748E6
:1020100081634015A549886500BF00BF0D2004906D
:1020200000200590049803904815C865C004C86353
:102030008000886303980290029801900198496D8E
:1020400060F3070199484165406920F4FF024FF4AD
:10205000FF01019801EAC01002439448426100BFA9
:102060004FF080509149C86300BF4FF080508F49B6
:1020700088630015886500BF059803904815C865FA
:10208000C004886303980290029801900198496DFA
:1020900060F3070185484165406920F4FF024FF471
:1020A000FF01019801EAC01002438048426100BF6D
:1020B0004FF080507D49C86300BF4FF080507B498E
:1020C00088630015886500BF00BF0F2004900020C2
:1020D0000590049803904815C865C004C863800043
:1020E000886303980290029801900198496D60F30B
:1020F00007016E484165406920F4FF024FF4FF017B
:10210000019801EAC01002436848426100BF4FF0E5
:1021100080506649C86300BF4FF0805063498863B0
:102120000015886500BF059803904815C865C00470
:10213000886303980290029801900198496D60F3BA
:1021400007015A484165406920F4FF024FF4FF013E
:10215000019801EAC01002435448426100BF4FF0A9
:1021600080505249C86300BF4FF080504F49886388
:102170000015886500BF00BF102004900020059066
:10218000049803904815C865C004C8638100474897
:102190008163039802900298019044490198496D27
:1021A00060F3070141484165406920F4FF014FF4A5
:1021B000FF02019802EAC01001433C48416100BFA0
:1021C0004FF080503949C86300BF4FF08050374905
:1021D00088630015886500BF059803904815C86599
:1021E000C004886303980290029801900198496D99
:1021F00060F307012D484165406920F4FF014FF469
:10220000FF02019802EAC01001432848416100BF63
:102210004FF080502549C86300BF4FF080502349DC
:1022200088630015886500BF00BF11200490072057
:102230000590049803904815C865C004C8638100E0
:102240001A488163039802900298019017490198F7
:10225000496D60F3070115484165406920F4FF02AC
:102260004FF4FF01019801EAC01002430F48426198
:1022700000BF4FF080500D49C86300BF4FF0805041
:102280000A4988630015886500BF059803904815C2
:10229000C865C00488630398029002980190019871
:1022A000496D60F307010148416501E000C0092064
:1022B000406920F4FF024FF4FF01019801EAC010C9
:1022C0000243FE48426100BF4FF08050FB49C863A3
:1022D00000BF4FF08050F94988630015886500BF42
:1022E00000BF122004900020059004980390481528
:1022F000C865C004C8638000886303980290029890
:1023000001900198496D60F30701EC48416540690F
:1023100020F4FF014FF4FF02019802EAC0100143CC
:10232000E648416100BF4FF08050E449C86300BFF8
:102330004FF08050E14988630115E048816500BF96
:10234000059803900846DD49C865C0048863039872
:102350000290029801900198496D60F30701D748F7
:102360004165406920F4FF024FF4FF01019801EA42
:10237000C0100243D148426100BF4FF08050CF49A6
:10238000C86300BF4FF08050CC4988630015886552
:1023900000BF00BF13200490002005900498039014
:1023A0004815C865C004C86380008863039802901C
:1023B000029801900198496D60F30701BF4841659B
:1023C000406920F4FF014FF4FF02019802EAC010B7
:1023D0000143BA48416100BF4FF08050B749C8631C
:1023E00000BF4FF08050B54988630015886500BF75
:1023F000059803904815C865C00488630398029047
:10240000029801900198496D60F30701AB4841655E
:10241000406920F4FF024FF4FF01019801EAC01067
:102420000243A648426100BF4FF08050A349C863F1
:1024300000BF4FF08050A14988630015886500BF38
:1024400000BF0720049001200590049803904815D0
:10245000C865C004C863800088630398029002982E
:1024600001900198496D60F3070194484165406906
:1024700020F4FF014FF4FF02019802EAC01001436B
:102480008E48416100BF4FF080508C49C86300BF47
:102490004FF08050894988630015886500BF059812
:1024A00003904815C865C004886303980290029899
:1024B00001900198496D60F30701804841654069CA
:1024C00020F4FF014FF4FF02019802EAC01001431B
:1024D0007A48416100BF4FF080507849C86300BF1F
:1024E0004FF08050754988630015886500BF00BFB4
:1024F000C8200FF029FB1020049041F290000590B5
:10250000049803904FF480706C49C865C004C86398
:102510008000886303980290029801900198496DA9
:1025200060F3070165484165406920F4FF014FF4FD
:10253000FF02019802EAC01001436048416100BFF8
:102540004FF080505D49C86300BF4FF080505B4939
:10255000886301155948816500BF059803900846B6
:102560005649C865C1045548816303980290029892
:10257000019052490198496D60F307014F48416548
:10258000406920F4FF024FF4FF01019801EAC010F6
:1025900002434A48426100BF4FF080504749C86338
:1025A00000BF4FF08050454988630015886500BF23
:1025B00000BF1120049040F227200590049803905A
:1025C0004815C865C004C8638000886303980290FA
:1025D000029801900198496D60F307013748416501
:1025E000406920F4FF014FF4FF02019802EAC01095
:1025F00001433248416100BF4FF080502F49C8630A
:1026000000BF4FF080502D49886301152B4881652C
:1026100000BF0598039008462849C865C004886330
:1026200003980290029801900198496D60F30701A8
:1026300022484165406920F4FF024FF4FF010198F0
:1026400001EAC01002431D48426100BF4FF08050B4
:102650001A49C86300BF4FF08050184988630015BD
:10266000886500BF00BF32200FF06EFA1220049080
:102670001F200590049803904FF480700F49C8659F
:10268000C004C86380008863039802900298019098
:102690000198496D60F3070108484165406920F4DD
:1026A000FF014FF4FF02019802EAC0100143034802
:1026B000416100BF4FF08051C16301E000C00920BB
:1026C00000BF4FF08050FE4988630115FC488165CA
:1026D00000BF059803900846F949C865C00488639F
:1026E00003980290029801900198496D60F30701E8
:1026F000F3484165406920F4FF024FF4FF0101985F
:1027000001EAC0100243EE48426100BF4FF0805022
:10271000EB49C86300BF4FF08050E949886300155A
:10272000886500BF00BF32200FF00EFA132004901E
:102730004FF4A8500590049803904FF48070E0493E
:10274000C865C004C863800088630398029002983B
:1027500001900198496D60F30701D94841654069CE
:1027600020F4FF024FF4FF01019801EAC010024378
:10277000D348426100BF4FF08050D149C86300BFC9
:102780004FF08050CE4988630015886500BF0598DA
:1027900003904815C865C0048863039802900298A6
:1027A00001900198496D60F30701C5484165406992
:1027B00020F4FF014FF4FF02019802EAC010014328
:1027C000BF48416100BF4FF08050BD49C86300BFA2
:1027D0004FF08051BA4881634015B949886500BF00
:1027E00000BF2920049027200590049803904815E5
:1027F000C865C004C863800088630398029002988B
:1028000001900198496D60F30701AD484165406949
:1028100020F4FF014FF4FF02019802EAC0100143C7
:10282000A748416100BF4FF08050A549C86300BF71
:102830004FF08050A24988630015886500BF059855
:1028400003904815C865C0048863039802900298F5
:1028500001900198496D60F307019948416540690D
:1028600020F4FF024FF4FF01019801EAC010024377
:102870009348426100BF4FF080509149C86300BF48
:102880004FF080508E4988630015886500BF00BFF7
:102890002B2004900D200590049803904815C865DE
:1028A000C004C86380008863039802900298019076
:1028B0000198496D60F3070181484165406920F442
:1028C000FF024FF4FF01019801EAC01002437C4867
:1028D000426100BF4FF080507949C86300BF4FF09C
:1028E0008050774988630015886500BF059803907C
:1028F0004815C865C0048863039802900298019047
:102900000198496D60F307016D484165406920F405
:10291000FF024FF4FF01019801EAC010024368482A
:10292000426100BF4FF080506549C86300BF4FF05F
:102930008050634988630015886500BF00BF32205E
:102940000FF002F9202004900020059004980390D5
:102950004FF480705A49C865C004C863800088631A
:1029600003980290029801900198496D60F3070165
:1029700053484165406920F4FF014FF4FF0201987C
:1029800002EAC01001434E48416100BF4FF0805041
:102990004B49C86300BF4FF08051494881634015DF
:1029A0004749886500BF059803904815C865C1046C
:1029B000434881630398029002980190404901982E
:1029C000496D60F307013E484165406920F4FF020C
:1029D0004FF4FF01019801EAC010024338484261F8
:1029E00000BF4FF080503649C86300BF4FF08050A1
:1029F000334988630015886500BF00BF212004901B
:102A000000200590049803904815C865C004C86369
:102A10008000886303980290029801900198496DA4
:102A200060F3070126484165406920F4FF014FF437
:102A3000FF02019802EAC01001432148416100BF32
:102A40004FF080501E49C86300BF4FF080501C49B2
:102A500088630015886500BF059803904815C86510
:102A6000C004886303980290029801900198496D10
:102A700060F3070112484165406920F4FF014FF4FB
:102A8000FF02019802EAC01001430D48416100BFF6
:102A90004FF080500A49C86300BF4FF0805008498A
:102AA00088630015886500BF00BF302004900020B7
:102AB0000590049803904815C865C004C86301E0F8
:102AC00000C009208000886303980290029801905A
:102AD0000198496D60F30701FE484165406920F4A3
:102AE000FF014FF4FF02019802EAC0100143F948C8
:102AF000416100BF4FF08050F649C86300BF4FF0FE
:102B00008050F44988630015886500BF05980390DC
:102B10004815C865C0048863039802900298019024
:102B20000198496D60F30701EA484165406920F466
:102B3000FF024FF4FF01019801EAC0100243E5488B
:102B4000426100BF4FF08050E249C86300BF4FF0C0
:102B50008050E04988630015886500BF00BF3120C0
:102B6000049040F207700590049803904815C865DA
:102B7000C004C863800088630398029002980190A3
:102B80000198496D60F30701D2484165406920F41E
:102B9000FF014FF4FF02019802EAC0100143CD4843
:102BA000416100BF4FF08050CA49C86300BF4FF079
:102BB0008050C84988630015886500BF0598039058
:102BC0004815C865C0048863039802900298019074
:102BD0000198496D60F30701BE484165406920F4E2
:102BE000FF024FF4FF01019801EAC0100243B94807
:102BF000426100BF4FF08050B649C86300BF4FF03C
:102C00008050B44988630015886500BF00BF32203A
:102C1000049040F207300590049803904815C86569
:102C2000C004C863800088630398029002980190F2
:102C30000198496D60F30701A6484165406920F499
:102C4000FF024FF4FF01019801EAC0100243A148BE
:102C5000426100BF4FF080509E49C86300BF4FF0F3
:102C600080509C4988630015886500BF05980390D3
:102C70004815C865C00488630398029002980190C3
:102C80000198496D60F3070192484165406920F45D
:102C9000FF024FF4FF01019801EAC01002438D4882
:102CA000426100BF4FF080508A49C86300BF4FF0B7
:102CB0008050884988630015886500BF00BF3520B3
:102CC000049008150590049803904815C865C00441
:102CD000C86381007F488163039802900298019045
:102CE0007C490198496D60F307017A484165406964
:102CF00020F4FF024FF4FF01019801EAC0100243E3
:102D00007448426100BF4FF080507249C86300BFF1
:102D10004FF080506F4988630015886500BF0598A3
:102D200003904815C865C004886303980290029810
:102D300001900198496D60F307016648416540695B
:102D400020F4FF014FF4FF02019802EAC010014392
:102D50006048416100BF4FF080505E49C86300BFCA
:102D60004FF080505B4988630015886500BF00BF45
:102D70003620049008200590049803904815C865F3
:102D8000C004C86380008863039802900298019091
:102D90000198496D60F307014E484165406920F490
:102DA000FF014FF4FF02019802EAC01001434948B5
:102DB000416100BF4FF080504649C86300BF4FF0EB
:102DC0008050444988630015886500BF05980390CA
:102DD0004815C865C0048863039802900298019062
:102DE0000198496D60F307013A484165406920F454
:102DF000FF024FF4FF01019801EAC0100243354879
:102E0000426100BF4FF080503249C86300BF4FF0AD
:102E100080513048816340152E49886500BF00BF4E
:102E20003720049004200590049803904815C86545
:102E3000C1042848C163880026498863039802902A
:102E4000029801900198496D60F30701214841659E
:102E5000406920F4FF014FF4FF02019802EAC0101C
:102E600001431C48416100BF4FF08051C16300BF66
:102E70004FF080511748816340151649886500BF9F
:102E8000059803904815C865C004886303980290AC
:102E9000029801900198496D60F307010D48416562
:102EA000406920F4FF024FF4FF01019801EAC010CD
:102EB00002430848426100BF4FF080500549C86393
:102EC00000BF4FF08050034988630015886500BF3C
:102ED00000BF01E000C009203820049000200590C8
:102EE000049803904815C865C004C86380008863CF
:102EF00003980290029801900198496D60F30701D0
:102F0000FE484165406920F4FF014FF4FF0201983B
:102F100002EAC0100143F948416100BF4FF0805000
:102F2000F649C86300BF4FF08050F449886300152C
:102F3000886500BF059803904815C865C00488637C
:102F400003980290029801900198496D60F307017F
:102F5000EA484165406920F4FF024FF4FF010198FF
:102F600001EAC0100243E548426100BF4FF08050C3
:102F7000E249C86300BF4FF08050E0498863001504
:102F8000886500BF00BF3920049040F207700590AB
:102F9000049803904815C865C004C863800088631E
:102FA00003980290029801900198496D60F307011F
:102FB000D2484165406920F4FF024FF4FF010198B7
:102FC00001EAC0100243CD48426100BF4FF080507B
:102FD000CA49C86300BF4FF08050C84988630015D4
:102FE000886500BF059803904815C865C0048863CC
:102FF00003980290029801900198496D60F30701CF
:10300000BE484165406920F4FF014FF4FF0201987A
:1030100002EAC0100143B948416100BF4FF080513E
:10302000C16300BF4FF08050B449886300158865C4
:1030300000BF00BF3C20049002200590049803903C
:103040004815C865C004C8638100AC488163039813
:10305000029002980190A9490198496D60F3070117
:10306000A6484165406920F4FF014FF4FF02019832
:1030700002EAC0100143A148416100BF4FF08050F7
:103080009E49C86300BF4FF080509C49886300157B
:10309000886500BF059803904815C865C00488631B
:1030A00003980290029801900198496D60F307011E
:1030B00092484165406920F4FF024FF4FF010198F6
:1030C00001EAC01002438D48426100BF4FF08050BA
:1030D0008A49C86300BF4FF080518848816340151A
:1030E0008649886500BF00BF3D20049041F604502A
:1030F0000590049803904815C865C004C863800013
:10310000886303980290029801900198496D60F3DA
:1031100007017A484165406920F4FF014FF4FF023E
:10312000019802EAC01001437448416100BF4FF0AA
:1031300080507249C86300BF4FF080506F49886368
:1031400001156E48816500BF0598039008466B49DC
:10315000C865C004886303980290029801900198A2
:10316000496D60F3070165484165406920F4FF023D
:103170004FF4FF01019801EAC01002435F48426129
:1031800000BF4FF080505D49C86300BF4FF08050D2
:103190005A4988630015886500BF00BF502004901D
:1031A00000200590049803904815C865C104534851
:1031B000C163880051498863039802900298019086
:1031C0000198496D60F307014C484165406920F45E
:1031D000FF014FF4FF02019802EAC0100143474883
:1031E000416100BF4FF08051C16300BF4FF080507C
:1031F000424988630015886500BF0598039049150A
:103200003E48C165C8043D4988630398029002980E
:1032100001900198496D60F30701384841654069A4
:1032200020F4FF024FF4FF01019801EAC0100243AD
:103230003248426100BF4FF080503049C86300BF40
:103240004FF080502D4988630015886500BF00BF8E
:1032500051200490EF200590049803904815C8650C
:10326000C004C863810025488163039802900298D6
:10327000019022490198496D60F307011F4841659B
:10328000406920F4FF024FF4FF01019801EAC010E9
:1032900002431A48426100BF4FF080501749C8638B
:1032A00000BF4FF080511548816340151349886570
:1032B00000BF059803904815C865C1040F48816395
:1032C00003980290029801900C490198496D60F3AF
:1032D00007010A484165406920F4FF014FF4FF02ED
:1032E000019802EAC01001430448416100BF4FF059
:1032F00080500249C86300BF02E0000000C00920FE
:103300004FF08050FE4988630015886500BF00BFFC
:103310005220049000200590049803904815C86539
:10332000C004C863800088630398029002980190EB
:103330000198496D60F30701F1484165406920F447
:10334000FF024FF4FF01019801EAC0100243EC486C
:10335000426100BF4FF08050E949C86300BF4FF0A1
:103360008050E74988630015886500BF0598039081
:103370004815C865C00488630398029002980190BC
:103380000198496D60F30701DD484165406920F40B
:10339000FF024FF4FF01019801EAC0100243D84830
:1033A000426100BF4FF08050D549C86300BF4FF065
:1033B0008050D34988630015886500BF00BF532043
:1033C000049040F23F100590049803904815C8659A
:1033D000C004C8638000886303980290029801903B
:1033E0000198496D60F30701C5484165406920F4C3
:1033F000FF014FF4FF02019802EAC0100143C048E8
:10340000416100BF4FF08050BD49C86300BF4FF01D
:103410008050BB4988630015886500BF05980390FC
:103420004915B748C165C804B54988630398029037
:10343000029801900198496D60F30701B048416519
:10344000406920F4FF024FF4FF01019801EAC01027
:103450000243AB48426100BF4FF08050A849C863A7
:1034600000BF4FF08050A64988630015886500BFF3
:1034700000BF602004904FF427400590049803900B
:103480004815C865C1049E48C16388009C4988638B
:1034900003980290029801900198496D60F307012A
:1034A00097484165406920F4FF014FF4FF020198FD
:1034B00002EAC01001439248416100BF4FF08051C1
:1034C000C16300BF4FF080508D4988630015886547
:1034D00000BF0598039049158948C165C80488490B
:1034E000886303980290029801900198496D60F3F7
:1034F000070183484165406920F4FF024FF4FF0152
:10350000019801EAC01002437D48426100BF4FF0BC
:1035100080507B49C86300BF4FF080507849886372
:103520000015886500BF00BF612004900120059050
:10353000049803904815C865C004C8638000886378
:1035400003980290029801900198496D60F3070179
:103550006B484165406920F4FF024FF4FF01019878
:1035600001EAC01002436648426100BF4FF080513B
:10357000C16300BF4FF080506149886300158865C2
:1035800000BF059803904815C865C0048863039878
:103590000290029801900198496D60F30701584824
:1035A0004165406920F4FF014FF4FF02019802EAEF
:1035B000C01001435248416100BF4FF08050504954
:1035C000C86300BF4FF080504D498863001588657F
:1035D00000BF00BF6A20049000200590049803906B
:1035E0004815C865C004C8638000886303980290CA
:1035F000029801900198496D60F3070140484165C8
:10360000406920F4FF014FF4FF02019802EAC01064
:1036100001433B48416100BF4FF080503849C863C7
:1036200000BF4FF08050364988630015886500BFA1
:10363000059803904815C865C004886303980290F4
:10364000029801900198496D60F307012C4841658B
:10365000406920F4FF024FF4FF01019801EAC01015
:1036600002432748426100BF4FF080502449C8639D
:1036700000BF4FF08050224988630015886500BF65
:1036800000BF802004900020059004980390481506
:10369000C865C004C86380008863039802900298DC
:1036A00001900198496D60F3070115484165406933
:1036B00020F4FF014FF4FF02019802EAC010014319
:1036C0000F48416100BF4FF080500D49C86300BFF3
:1036D0004FF080500A4988630015886500BF05983F
:1036E00003904815C865C004886303980290029847
:1036F00001900198496D60F307010148416501E0BF
:1037000000C00920406920F4FF024FF4FF01019836
:1037100001EAC0100243FE48426100BF4FF08050F2
:10372000FB49C86300BF4FF08050F949886300151A
:10373000886500BF00BF8120049000200590049898
:1037400003904815C865C004C86380008863039867
:103750000290029801900198496D60F30701EC48CE
:103760004165406920F4FF014FF4FF02019802EA2D
:10377000C0100143E648416100BF4FF08050E4496A
:10378000C86300BF4FF08050E14988630015886529
:1037900000BF059803904815C865C0048863039866
:1037A0000290029801900198496D60F30701D84892
:1037B0004165406920F4FF024FF4FF01019801EADE
:1037C000C0100243D248426100BF4FF08050D04940
:1037D000C86300BF4FF08050CD49886300158865ED
:1037E00000BF00BF82200490002005900498039041
:1037F0004815C865C004C8638000886303980290B8
:10380000029801900198496D60F30701C048416535
:10381000406920F4FF024FF4FF01019801EAC01053
:103820000243BB48426100BF4FF08050B849C863B3
:1038300000BF4FF08050B64988630015886500BF0F
:10384000059803904815C865C004886303980290E2
:10385000029801900198496D60F30701AC484165F9
:10386000406920F4FF014FF4FF02019802EAC01002
:103870000143A748416100BF4FF08050A449C8638D
:1038800000BF4FF08050A24988630015886500BFD3
:1038900000BF8320049000200590049803904815F1
:1038A000C865C004C86380008863039802900298CA
:1038B00001900198496D60F30701954841654069A1
:1038C00020F4FF014FF4FF02019802EAC010014307
:1038D0008F48416100BF4FF080508D49C86300BFE1
:1038E0004FF080508A4988630015886500BF0598AD
:1038F00003904815C865C004886303980290029835
:1039000001900198496D60F3070181484165406964
:1039100020F4FF024FF4FF01019801EAC0100243B6
:103920007B48426100BF4FF080507949C86300BFB7
:103930004FF08050764988630015886500BF00BF4E
:103940008420049000200590049803904815C865D1
:10395000C004C863800088630398029002980190B5
:103960000198496D60F3070169484165406920F499
:10397000FF014FF4FF02019802EAC01001436448BE
:10398000416100BF4FF080506149C86300BF4FF0F4
:1039900080505F4988630015886500BF05980390D3
:1039A0004815C865C0048863039802900298019086
:1039B0000198496D60F3070155484165406920F45D
:1039C000FF024FF4FF01019801EAC0100243504882
:1039D000426100BF4FF080504D49C86300BF4FF0B7
:1039E00080504B4988630015886500BF00BF852063
:1039F000049000200590049803904815C865C00401
:103A0000C86380008863039802900298019001982F
:103A1000496D60F307013E484165406920F4FF02AB
:103A20004FF4FF01019801EAC01002433848426197
:103A300000BF4FF080503649C86300BF4FF0805040
:103A4000334988630015886500BF059803904815C1
:103A5000C865C00488630398029002980190019899
:103A6000496D60F307012A484165406920F4FF026F
:103A70004FF4FF01019801EAC0100243244842615B
:103A800000BF4FF080502249C86300BF4FF0805004
:103A90001F4988630015886500BF00BF902004900F
:103AA00010200590049803904815C865C004C863A9
:103AB0008000886303980290029801900198496DF4
:103AC00060F3070112484165406920F4FF014FF49B
:103AD000FF02019802EAC01001430D48416100BF96
:103AE0004FF080500A49C86300BF4FF0805008492A
:103AF000886301150648816500BF05980390084654
:103B00000349C865C004886303980290029801E0E5
:103B100000C0092001900198496D60F30701FE483B
:103B20004165406920F4FF014FF4FF02019802EA69
:103B3000C0100143F848416100BF4FF08050F64982
:103B4000C86300BF4FF08050F34988630015886553
:103B500000BF00BF922004904FF4C060059004980D
:103B600003904815C865C004C86380008863039843
:103B70000290029801900198496D60F30701E648B0
:103B80004165406920F4FF014FF4FF02019802EA09
:103B9000C0100143E048416100BF4FF08050DE4952
:103BA000C86300BF4FF08050DB498863001588650B
:103BB00000BF059803904815C865C0048863039842
:103BC0000290029801900198496D60F30701D24874
:103BD0004165406920F4FF024FF4FF01019801EABA
:103BE000C0100243CC48426100BF4FF08050CA4928
:103BF000C86300BF4FF08050C749886300158865CF
:103C000000BF00BF0720049040F2331005900498D5
:103C100003904815C865C004C86380008863039892
:103C20000290029801900198496D60F30701BA482B
:103C30004165406920F4FF014FF4FF02019802EA58
:103C4000C0100143B448416100BF4FF08050B249F9
:103C5000C86300BF4FF08050AF4988630015886586
:103C600000BF059803904915AB48C165C804AA492F
:103C7000886303980290029801900198496D60F35F
:103C80000701A5484165406920F4FF014FF4FF0298
:103C9000019802EAC01001439F48416100BF4FF004
:103CA00080509D49C86300BF4FF080509A49886397
:103CB0000015886500BF00BF0DF010B80698A0F58C
:103CC0001341203904D00698B0F5134F41F04485D4
:103CD00000209249087004900590049803904FF4D6
:103CE00080708D49C865C004C863800088630398EC
:103CF0000290029801900198496D60F3070186488F
:103D00004165406920F4FF014FF4FF02019802EA87
:103D1000C01001438048416100BF4FF080507E4990
:103D2000C86300BF4FF080507B49886300158865E9
:103D300000BF059803904815C865C00488630398C0
:103D40000290029801900198496D60F30701724852
:103D50004165406920F4FF024FF4FF01019801EA38
:103D6000C01002436C48426100BF4FF080506A4966
:103D7000C86300BF4FF080506749886300158865AD
:103D800000BF00BF0120049000020590049803903A
:103D90004815C865C004C86381005F488163039803
:103DA0000290029801905C490198496D60F3070107
:103DB00059484165406920F4FF014FF4FF02019822
:103DC00002EAC01001435448416100BF4FF08050E7
:103DD0005149C86300BF4FF080504F4988630015B8
:103DE000886500BF059803904815C865C0048863BE
:103DF00003980290029801900198496D60F30701C1
:103E000045484165406920F4FF024FF4FF010198E5
:103E100001EAC01002434048426100BF4FF08050A9
:103E20003D49C86300BF4FF080503B49886300158F
:103E3000886500BF00BF022004904FF4E060059049
:103E4000049803904815C865C004C863800088635F
:103E500003980290029801900198496D60F3070160
:103E60002D484165406920F4FF014FF4FF0201989D
:103E700002EAC01001432848416100BF4FF0805062
:103E80002549C86300BF4FF080502349886300155F
:103E9000886500BF059803904815C865C00488630D
:103EA00003980290029801900198496D60F3070110
:103EB00019484165406920F4FF024FF4FF01019861
:103EC00001EAC01002431448426100BF4FF0805025
:103ED0001149C86300BF4FF080500F498863001537
:103EE000886500BF00BF0320049041F218000590D0
:103EF000049803904815C865C004C86380008863AF
:103F000003980290029801900198496D60F30701AF
:103F100001484165406903E000C0092000C0072056
:103F200020F4FF014FF4FF02019802EAC0100143A0
:103F3000FE48416100BF4FF08050FC49C86300BF9C
:103F40004FF08050F94988630015886500BF0598D7
:103F500003904815C865C0048863039802900298CE
:103F600001900198496D60F30701F048416540698F
:103F700020F4FF014FF4FF02019802EAC010014350
:103F8000EA48416100BF4FF08050E849C86300BF74
:103F90004FF08050E54988630015886500BF00BF79
:103FA0000420049000200590049803904815C865EB
:103FB000C004C8638000886303980290029801904F
:103FC0000198496D60F30701D8484165406920F4C4
:103FD000FF024FF4FF01019801EAC0100243D348E9
:103FE000426100BF4FF08050D049C86300BF4FF01E
:103FF0008050CE4988630015886500BF05980390FE
:104000004815C865C004886303980290029801901F
:104010000198496D60F30701C4484165406920F487
:10402000FF024FF4FF01019801EAC0100243BF48AC
:10403000426100BF4FF08050BC49C86300BF4FF0E1
:104040008050BA4988630015886500BF00BF08200A
:10405000049040F202200590049803904815C8652A
:10406000C004C8638100B14881630398029002983C
:104070000190AE490198496D60F30701AB48416575
:10408000406920F4FF024FF4FF01019801EAC010DB
:104090000243A648426100BF4FF08050A349C86365
:1040A00000BF4FF08050A14988630015886500BFAC
:1040B000059803904815C865C0048863039802906A
:1040C000029801900198496D60F307019748416596
:1040D000406920F4FF024FF4FF01019801EAC0108B
:1040E00002439248426100BF4FF080508F49C8633D
:1040F00000BF4FF080508D4988630015886500BF70
:1041000000BF0920049000200590049803904815F2
:10411000C865C004C8638000886303980290029851
:1041200001900198496D60F307018048416540693D
:1041300020F4FF014FF4FF02019802EAC01001438E
:104140007A48416100BF4FF080507849C86300BF92
:104150004FF08050754988630015886500BF059849
:1041600003904815C865C0048863039802900298BC
:1041700001900198496D60F307016C484165406901
:1041800020F4FF024FF4FF01019801EAC01002433E
:104190006648426100BF4FF080506449C86300BF69
:1041A0004FF08050614988630015886500BF00BFEB
:1041B0000A20049000200590049803904815C865D3
:1041C000C004C8638000886303980290029801903D
:1041D0000198496D60F3070154484165406920F436
:1041E000FF014FF4FF02019802EAC01001434F485B
:1041F000416100BF4FF080504C49C86300BF4FF091
:1042000080504A4988630015886500BF059803906F
:104210004815C865C004886303980290029801900D
:104220000198496D60F3070140484165406920F4F9
:10423000FF014FF4FF02019802EAC01001433B481E
:10424000416100BF4FF080503849C86300BF4FF054
:104250008050364988630015886500BF00BF0C2078
:10426000049001200590049803904815C865C00487
:10427000C8638000886303980290029801900198B7
:10428000496D60F3070129484165406920F4FF0248
:104290004FF4FF01019801EAC01002432348426134
:1042A00000BF4FF080502149C86300BF4FF08050DD
:1042B0001E4988630015886500BF0598039048155E
:1042C000C865C00488630398029002980190019821
:1042D000496D60F3070115484165406920F4FF020C
:1042E0004FF4FF01019801EAC01002430F484261F8
:1042F00000BF4FF080500D49C86300BF4FF08050A1
:104300000A4988630015886500BF00BF0D2004902E
:1043100000200590049803904815C865C004C86340
:104320008100024881630398029001E000C00920E7
:1043300002980190FE490198496D60F30701FC481D
:104340004165406920F4FF014FF4FF02019802EA41
:10435000C0100143F648416100BF4FF08050F4495E
:10436000C86300BF4FF08050F1498863001588652D
:1043700000BF059803904815C865C004886303987A
:104380000290029801900198496D60F30701E84896
:104390004165406920F4FF024FF4FF01019801EAF2
:1043A000C0100243E248426100BF4FF08050E04934
:1043B000C86300BF4FF08050DD49886300158865F1
:1043C00000BF00BF0F2004900020059004980390C8
:1043D0004815C865C004C8638000886303980290CC
:1043E000029801900198496D60F30701D04841653A
:1043F000406920F4FF024FF4FF01019801EAC01068
:104400000243CB48426100BF4FF08050C849C863A7
:1044100000BF4FF08050C64988630015886500BF13
:10442000059803904815C865C004886303980290F6
:10443000029801900198496D60F30701BC484165FD
:10444000406920F4FF024FF4FF01019801EAC01017
:104450000243B748426100BF4FF08050B449C8637F
:1044600000BF4FF08050B24988630015886500BFD7
:1044700000BF64200DF068FB0720049040F201109B
:104480000590049803904FF48070A949C865C00452
:10449000C863800088630398029002980190019895
:1044A000496D60F30701A2484165406920F4FF01AE
:1044B0004FF4FF02019802EAC01001439C48416199
:1044C00000BF4FF080509A49C86300BF4FF0805042
:1044D000974988630015886500BF059803904815C3
:1044E000C865C004886303980290029801900198FF
:1044F000496D60F307018E484165406920F4FF0172
:104500004FF4FF02019802EAC0100143884841615C
:1045100000BF4FF080508649C86300BF4FF0805005
:10452000834988630015886500BF00BF64200DF0D3
:104530000BFB102004904FF48650059004980390D4
:104540004FF480707A49C865C004C86380008863EE
:1045500003980290029801900198496D60F3070159
:1045600073484165406920F4FF014FF4FF02019850
:1045700002EAC01001436E48416100BF4FF0805015
:104580006B49C86300BF4FF08050694988630015CC
:10459000886500BF0598039049156548C165C80442
:1045A0006349886303980290029801900198496DCD
:1045B00060F307015E484165406920F4FF024FF453
:1045C000FF01019801EAC01002435948426100BF4F
:1045D0004FF080505649C86300BF4FF08050544997
:1045E000886301155248816500BF00BF1120049007
:1045F000072005900498039008464D49C865C104FA
:104600004B48C16388004A49886303980290029826
:1046100001900198496D60F3070145484165406983
:1046200020F4FF014FF4FF02019802EAC010014399
:104630003F48416100BF4FF080503D49C86300BF13
:104640004FF080503A49886301153948816500BFB1
:104650000598039008463649C865C00488630398E6
:104660000290029801900198496D60F3070130486B
:104670004165406920F4FF024FF4FF01019801EA0F
:10468000C01002432A48426100BF4FF080502849C1
:10469000C86300BF4FF080502549886300158865C6
:1046A00000BF00BF122004904FF48870059004985A
:1046B00003904815C865C004C863800088630398E8
:1046C0000290029801900198496D60F30701184823
:1046D0004165406920F4FF014FF4FF02019802EAAE
:1046E000C01001431248416100BF4FF08050104993
:1046F000C86300BF4FF080500D498863001588657E
:1047000000BF059803904815C865C00488630398E6
:104710000290029801900198496D60F307010448E6
:104720004165406920F4FF024FF4FF01019801E068
:1047300000C0092001EAC0100243FE48426100BFE8
:104740004FF08050FB49C86300BF4FF08050F949DB
:1047500088630015886500BF00BF132004904FF4E4
:1047600030600590049803904815C865C004C8637C
:104770008000886303980290029801900198496D27
:1047800060F30701EB484165406920F4FF014FF4F5
:10479000FF02019802EAC0100143E648416100BFF0
:1047A0004FF08050E349C86300BF4FF08050E149AB
:1047B00088630015886500BF059803904815C86593
:1047C000C004886303980290029801900198496D93
:1047D00060F30701D7484165406920F4FF014FF4B9
:1047E000FF02019802EAC0100143D248416100BFB4
:1047F0004FF08050CF49C86300BF4FF08050CD4983
:1048000088630015886500BF00BF29200490002040
:104810000590049803904815C865C004C8638000DB
:10482000886303980290029801900198496D60F3A3
:104830000701C0484165406920F4FF014FF4FF02C1
:10484000019802EAC0100143BA48416100BF4FF02D
:104850008050B849C86300BF4FF08050B5498863A5
:104860000015886500BF059803904815C865C00409
:10487000886303980290029801900198496D60F353
:104880000701AC484165406920F4FF024FF4FF0185
:10489000019801EAC0100243A648426100BF4FF0F0
:1048A0008050A449C86300BF4FF08050A14988637D
:1048B0000015886500BF00BF2B20049044F2100053
:1048C0000590049803904815C865C004C86380002B
:1048D000886303980290029801900198496D60F3F3
:1048E000070194484165406920F4FF014FF4FF023D
:1048F000019802EAC01001438E48416100BF4FF0A9
:1049000080508C49C86300BF4FF08050894988634C
:104910000015886500BF059803904815C865C00458
:10492000886303980290029801900198496D60F3A2
:10493000070180484165406920F4FF024FF4FF0100
:10494000019801EAC01002437A48426100BF4FF06B
:1049500080507849C86300BF4FF080507549886324
:104960000015886500BF00BF50200490002005900E
:10497000049803904815C865C004C86381006D4859
:10498000816303980290029801906A490198496DE9
:1049900060F3070167484165406920F4FF024FF466
:1049A000FF01019801EAC01002436248426100BF62
:1049B0004FF080505F49C86300BF4FF080505D49A1
:1049C000886301155B48816500BF05980390084620
:1049D0005849C865C0048863039802900298019002
:1049E0000198496D60F3070152484165406920F420
:1049F000FF024FF4FF01019801EAC01002434D4845
:104A0000426100BF4FF080504A49C86300BF4FF079
:104A10008050484988630015886500BF00BF512059
:104A20000490EF200590049803904815C865C004D1
:104A3000C86381003F488163039802900298019007
:104A40003C490198496D60F307013A484165406966
:104A500020F4FF024FF4FF01019801EAC010024365
:104A60003448426100BF4FF080503249C86300BFF4
:104A70004FF080502F4988630015886500BF059866
:104A800003904815C865C004886303980290029893
:104A900001900198496D60F307012648416540691E
:104AA00020F4FF014FF4FF02019802EAC010014315
:104AB0002048416100BF4FF080501E49C86300BFCD
:104AC0004FF080501B4988630015886500BF00BF08
:104AD0005220049000200590049803904815C86562
:104AE000C004C86380008863039802900298019014
:104AF0000198496D60F307010E484165406920F453
:104B0000FF014FF4FF02019802EAC0100143094877
:104B1000416100BF4FF080500649C86300BF4FF0AD
:104B20008050044988630015886500BF059803908C
:104B3000491501E000C00920FE48C165C804FD49CF
:104B4000886303980290029801900198496D60F380
:104B50000701F8484165406920F4FF024FF4FF0166
:104B6000019801EAC0100243F248426100BF4FF0D1
:104B70008050F049C86300BF4FF08050ED49886312
:104B80000015886500BF00BF5320049040F23F101D
:104B90000590049803904815C865C004C863800058
:104BA000886303980290029801900198496D60F320
:104BB0000701E0484165406920F4FF014FF4FF021E
:104BC000019802EAC0100143DA48416100BF4FF08A
:104BD0008050D849C86300BF4FF08050D5498863E2
:104BE0000015886500BF059803904815C865C00486
:104BF000886303980290029801900198496D60F3D0
:104C00000701CC484165406920F4FF024FF4FF01E1
:104C1000019801EAC0100243C648426100BF4FF04C
:104C20008050C449C86300BF4FF08050C1498863B9
:104C30000015886500BF00BF602004904FF41C5031
:104C40000590049803904815C865C004C8638000A7
:104C5000886303980290029801900198496D60F36F
:104C60000701B4484165406920F4FF014FF4FF0299
:104C7000019802EAC0100143AE48416100BF4FF005
:104C80008050AC49C86300BF4FF08050A949886389
:104C90000015886500BF059803904815C865C004D5
:104CA000886303980290029801900198496D60F31F
:104CB0000701A0484165406920F4FF024FF4FF015D
:104CC000019801EAC01002439A48426100BF4FF0C8
:104CD00080509849C86300BF4FF080509549886361
:104CE0000015886500BF00BF612004900120059079
:104CF000049803904815C865C1048E48C1638900B3
:104D0000816303980290029801908A490198496D45
:104D100060F3070187484165406920F4FF014FF4C3
:104D2000FF02019802EAC01001438248416100BFBE
:104D30004FF080507F49C86300BF4FF080517D48DD
:104D4000816340157B49886500BF0598039048152D
:104D5000C865C00488630398029002980190019886
:104D6000496D60F3070173484165406920F4FF0114
:104D70004FF4FF02019802EAC01001436D484161FF
:104D800000BF4FF080506B49C86300BF4FF08050A8
:104D9000684988630015886500BF00BF6A200490D9
:104DA00000200590049803904815C865C004C863A6
:104DB0008000886303980290029801900198496DE1
:104DC00060F307015B484165406920F4FF014FF43F
:104DD000FF02019802EAC01001435648416100BF3A
:104DE0004FF080505349C86300BF4FF08050514985
:104DF00088630015886500BF059803904815C8654D
:104E0000C004886303980290029801900198496D4C
:104E100060F3070147484165406920F4FF024FF401
:104E2000FF01019801EAC01002434248426100BFFD
:104E30004FF080503F49C86300BF4FF080503D495C
:104E400088630015886500BF00BF802004900020A3
:104E50000590049803904815C865C004C863810094
:104E60003448816303980290029801903149019877
:104E7000496D60F307012F484165406920F4FF0147
:104E80004FF4FF02019802EAC01001432948416132
:104E900000BF4FF080502749C86300BF4FF08050DB
:104EA0002449886301152348816500BF0598039054
:104EB00008462049C865C004886303980290029898
:104EC00001900198496D60F307011A4841654069F6
:104ED00020F4FF024FF4FF01019801EAC0100243E1
:104EE0001448426100BF4FF080501249C86300BFB0
:104EF0004FF080500F4988630015886500BF00BFE0
:104F00008120049000200590049803904815C865FE
:104F1000C004C863800088630398029002980190DF
:104F20000198496D60F3070102484165406920F42A
:104F3000FF0101E000C009204FF4FF02019802EADE
:104F4000C0100143FE48416100BF4FF08050FC4952
:104F5000C86300BF4FF08050F94988630015886529
:104F600000BF059803904815C865C004886303987E
:104F70000290029801900198496D60F30701F04892
:104F80004165406920F4FF024FF4FF01019801EAF6
:104F9000C0100243EA48426100BF4FF08050E84928
:104FA000C86300BF4FF08050E549886300158865ED
:104FB00000BF00BF82200490002005900498039059
:104FC0004815C865C004C8638000886303980290D0
:104FD000029801900198496D60F30701D848416536
:104FE000406920F4FF014FF4FF02019802EAC0106B
:104FF0000143D348416100BF4FF08050D049C8639E
:1050000000BF4FF08050CE4988630015886500BF0F
:10501000059803904815C865C004886303980290FA
:10502000029801900198496D60F30701C4484165F9
:10503000406920F4FF014FF4FF02019802EAC0101A
:105040000143BF48416100BF4FF08050BC49C86375
:1050500000BF4FF08050BA4988630015886500BFD3
:1050600000BF832004900020059004980390481509
:10507000C865C004C86380008863039802900298E2
:1050800001900198496D60F30701AD4841654069A1
:1050900020F4FF024FF4FF01019801EAC01002431F
:1050A000A748426100BF4FF08050A549C86300BFC8
:1050B0004FF08050A24988630015886500BF0598AD
:1050C00003904815C865C00488630398029002984D
:1050D00001900198496D60F3070199484165406965
:1050E00020F4FF024FF4FF01019801EAC0100243CF
:1050F0009348426100BF4FF080509149C86300BFA0
:105100004FF080508E4988630015886500BF00BF4E
:105110008420049000200590049803904815C865E9
:10512000C004C863800088630398029002980190CD
:105130000198496D60F3070181484165406920F499
:10514000FF014FF4FF02019802EAC01001437C48BE
:10515000416100BF4FF080507949C86300BF4FF0F4
:105160008050774988630015886500BF05980390D3
:105170004815C865C004886303980290029801909E
:105180000198496D60F307016D484165406920F45D
:10519000FF024FF4FF01019801EAC0100243684882
:1051A000426100BF4FF080506549C86300BF4FF0B7
:1051B0008050634988630015886500BF00BF852063
:1051C000049000200590049803904815C865C00419
:1051D000C86381005A488163039802900298019045
:1051E00057490198496D60F3070155484165406989
:1051F00020F4FF014FF4FF02019802EAC0100143BE
:105200004F48416100BF4FF080504D49C86300BF17
:105210004FF080514A4881634115816500BF059870
:10522000039008464649C865C10445488163039810
:1052300002900298019042490198496D60F307017C
:105240003F484165406920F4FF024FF4FF01019897
:1052500001EAC01002433A48426100BF4FF080505B
:105260003749C86300BF4FF0805035498863001547
:10527000886500BF00BF902004901020059004981E
:1052800003904815C865C1042D48C1638900816336
:10529000039802900298019029490198496D60F3A2
:1052A000070127484165406920F4FF014FF4FF02E0
:1052B000019802EAC01001432148416100BF4FF04C
:1052C00080501F49C86300BF4FF080511C48816364
:1052D00040151B49886500BF059803904815C865AF
:1052E000C004886303980290029801900198496D68
:1052F00060F3070112484165406920F4FF014FF453
:10530000FF02019802EAC01001430D48416100BF4D
:105310004FF080500A49C86300BF4FF080500849E1
:1053200088630015886500BF00BF922004900020AC
:105330000590049803904815C865C004C86301E04F
:1053400000C00920800088630398029002980190B1
:105350000198496D60F30701FE484165406920F4FA
:10536000FF014FF4FF02019802EAC0100143F9481F
:10537000416100BF4FF08050F649C86300BF4FF055
:105380008050F44988630015886500BF0598039034
:105390004815C865C004886303980290029801907C
:1053A0000198496D60F30701EA484165406920F4BE
:1053B000FF024FF4FF01019801EAC0100243E548E3
:1053C000426100BF4FF08050E249C86300BF4FF018
:1053D0008050E04988630015886500BF00BF9320B6
:1053E000049001200590049803904815C865C004F6
:1053F000C8638100D74881630398029002980190A6
:10540000D4490198496D60F30701D248416540696C
:1054100020F4FF014FF4FF02019802EAC01001439B
:10542000CC48416100BF4FF08050CA49C86300BFFB
:105430004FF08051C74881634015C649886500BF59
:10544000059803904815C865C004886303980290C6
:10545000029801900198496D60F30701BD484165CC
:10546000406920F4FF024FF4FF01019801EAC010E7
:105470000243B848426100BF4FF08050B549C8634D
:1054800000BF4FF08050B34988630015886500BFA6
:1054900000BF952004904FF4887005900498039005
:1054A0004815C865C004C8638000886303980290EB
:1054B000029801900198496D60F30701A548416584
:1054C000406920F4FF024FF4FF01019801EAC01087
:1054D0000243A048426100BF4FF080509D49C8631D
:1054E00000BF4FF080509B4988630015886500BF5E
:1054F000059803904815C865C00488630398029016
:10550000029801900198496D60F307019148416547
:10551000406920F4FF024FF4FF01019801EAC01036
:1055200002438C48426100BF4FF080508949C863F4
:1055300000BF4FF08050874988630015886500BF21
:1055400000BF972004900020059004980390481510
:10555000C865C004C86380008863039802900298FD
:1055600001900198496D60F307017A4841654069EF
:1055700020F4FF024FF4FF01019801EAC01002433A
:105580007448426100BF4FF080507249C86300BF49
:105590004FF080506F4988630015886500BF0598FB
:1055A00003904815C865C004886303980290029868
:1055B00001900198496D60F30701664841654069B3
:1055C00020F4FF014FF4FF02019802EAC0100143EA
:1055D0006048416100BF4FF080505E49C86300BF22
:1055E0004FF080505B4988630015886500BF00BF9D
:1055F0009820049000200590049803904815C865F1
:10560000C004C863800088630398029002980190E8
:105610000198496D60F307014E484165406920F4E7
:10562000FF014FF4FF02019802EAC010014349480C
:10563000416100BF4FF080504649C86300BF4FF042
:105640008050444988630015886500BF0598039021
:105650004815C865C00488630398029002980190B9
:105660000198496D60F307013A484165406920F4AB
:10567000FF024FF4FF01019801EAC01002433548D0
:10568000426100BF4FF080503249C86300BF4FF005
:105690008050304988630015886500BF00BF07202F
:1056A000049040F273100590049803904815C86563
:1056B000C004C86380008863039802900298019038
:1056C0000198496D60F3070122484165406920F463
:1056D000FF024FF4FF01019801EAC01002431D4888
:1056E000426100BF4FF080501A49C86300BF4FF0BD
:1056F0008050184988630015886500BF059803909D
:105700004815C865C0048863039802900298019008
:105710000198496D60F307010E484165406920F426
:10572000FF014FF4FF02019802EAC010014309484B
:10573000416100BF4FF080500649C86300BF4FF081
:1057400080500449886301150248816500BF00BF8D
:105750000BF0C4BA00C009200698A0F5A85105397D
:1057600005D00698A0F5A061053942F0BE82082058
:10577000FE490870E52004904FF40040059004981D
:1057800003904FF48070FA49C865C004C863800074
:10579000886303980290029801900198496D60F324
:1057A0000701F3484165406920F4FF024FF4FF010F
:1057B000019801EAC0100243ED48426100BF4FF07A
:1057C0008050EB49C86300BF4FF08050E8498863C0
:1057D0000015886500BF059803904815C865C0048A
:1057E000886303980290029801900198496D60F3D4
:1057F0000701DF484165406920F4FF024FF4FF01D3
:10580000019801EAC0100243D948426100BF4FF03D
:105810008050D749C86300BF4FF08050D449886397
:105820000015886500BF00BF00200490012005908E
:10583000049803904815C865C004C8638000886355
:1058400003980290029801900198496D60F3070156
:10585000C7484165406920F4FF024FF4FF010198F9
:1058600001EAC0100243C248426100BF4FF08050BD
:10587000BF49C86300BF4FF08050BD498863001521
:10588000886500BF059803904815C865C004886303
:1058900003980290029801900198496D60F3070106
:1058A000B3484165406920F4FF024FF4FF010198BD
:1058B00001EAC0100243AE48426100BF4FF0805081
:1058C000AB49C86300BF4FF08050A94988630015F9
:1058D000886500BF00BF2B2004901020059004981D
:1058E00003904815C865C004C863800088630398A6
:1058F0000290029801900198496D60F307019C485D
:105900004165406920F4FF014FF4FF02019802EA6B
:10591000C01001439648416100BF4FF08050944948
:10592000C86300BF4FF080509149886300158865B7
:1059300000BF059803904815C865C00488630398A4
:105940000290029801900198496D60F30701884820
:105950004165406920F4FF024FF4FF01019801EA1C
:10596000C01002438248426100BF4FF0805080491E
:10597000C86300BF4FF080507D498863001588657B
:1059800000BF00BF0120049000020590049803901E
:105990004815C865C1047648C163880074498863A6
:1059A00003980290029801900198496D60F30701F5
:1059B0006F484165406920F4FF024FF4FF010198F0
:1059C00001EAC01002436A48426100BF4FF08050B4
:1059D0006749C86300BF4FF0805065498863001570
:1059E000886500BF059803904815C865C0048863A2
:1059F00003980290029801900198496D60F30701A5
:105A00005B484165406920F4FF014FF4FF020198B3
:105A100002EAC01001435648416100BF4FF0805078
:105A20005349C86300BF4FF0805051498863001547
:105A3000886500BF00BF022004904FF4E06005902D
:105A4000049803904815C865C004C8638000886343
:105A500003980290029801900198496D60F3070144
:105A600043484165406920F4FF024FF4FF0101986B
:105A700001EAC01002433E48426100BF4FF080502F
:105A80003B49C86300BF4FF0805039498863001517
:105A9000886500BF059803904815C865C0048863F1
:105AA00003980290029801900198496D60F30701F4
:105AB0002F484165406920F4FF024FF4FF0101982F
:105AC00001EAC01002432A48426100BF4FF08050F3
:105AD0002749C86300BF4FF08050254988630015EF
